:100000001CC035C034C033C032C031C030C02FC076
:100010002EC02DC02CC02BC02AC0D2C128C027C0E2
:10002000F5C125C024C023C022C021C061C31AC3AA
:100030004CC31DC0D9012C03A90411241FBECFEF4E
:10004000CDBFDFE3DEBF2FE3A0E0BFE301C01D9221
:10005000A131B207E1F710E0CDE1D0E003C0219774
:10006000FE017BD4CA31D107D1F723D1A6C4C8CFB2
:100070002F923F924F925F926F920F931F93CF9365
:10008000DF93CDB7DEB72797CDBFDEBF89E09FE313
:10009000C6D264E670E089E09FE3C8D161E089E000
:1000A0009FE3DED189E09FE3A8D26EEB79E880E0A0
:1000B0009FE3E7D380E09FE3C6D3312C212C2E01B0
:1000C00026E0420E511C6894662461F800E018E0B6
:1000D0006FEC79E880E09FE3D4D380E09FE3B3D373
:1000E0004AE0B201C1013FD4A0E0BFE34D925C926F
:1000F000119712966C92129713961C921397F8010F
:10010000258120662583CD019ED366ED79E880E0C8
:100110009FE3B7D380E09FE396D38FE09FE306D4BD
:100120004AE0BE016F5F7F4F1ED4BE016F5F7F4FFD
:1001300080E09FE3A6D380E09FE385D36CEC79E871
:1001400080E09FE39ED380E09FE37DD389E09FE33F
:10015000AFD1FFE32DE083E0F15020408040E1F794
:1001600000C000009FEF291A390AE5E02E1631047D
:1001700009F0AECF89E09FE352D22796CDBFDEBF14
:10018000DF91CF911F910F916F905F904F903F90B3
:100190002F9008952F923F924F925F926F920F93FC
:1001A0001F93CF93DF93CDB7DEB72797CDBFDEBFC9
:1001B00089E09FE334D268EE73E089E09FE336D1B3
:1001C00061E089E09FE34CD189E09FE316D26AEDBC
:1001D00079E880E09FE355D380E09FE334D3312C6E
:1001E000212C2E0126E0420E511C6894662461F8F1
:1001F00000E018E06FEC79E880E09FE342D380E014
:100200009FE321D34AE0B201C101ADD3A0E0BFE337
:100210004D925C92119712966C92129713961C92C3
:100220001397F801258120662583CD010CD366ED57
:1002300079E880E09FE325D380E09FE304D389E061
:100240009FE300D14AE0BE016F5F7F4F8CD3BE01B8
:100250006F5F7F4F80E09FE314D380E09FE3F3D292
:100260006CEC79E880E09FE30CD389E09FE320D138
:10027000FFE32DE083E0F15020408040E1F700C033
:1002800000009FEF291A390AE5E02E16310409F023
:10029000B1CF89E09FE3C3D12796CDBFDEBFDF9109
:1002A000CF911F910F916F905F904F903F902F9043
:1002B0000895CDB7DEB72597CDBFDEBF28ED24BFAB
:1002C0001092610078946CE370E089E09FE3AED017
:1002D00061E089E09FE3C4D089E09FE38ED14AC00A
:1002E00020910F3F3091103F2932314008F457C020
:1002F00069EE79E880E09FE3C4D24AE0BE016F5F17
:100300007F4F80910F3F9091103F2DD380E09FE36E
:100310009AD2BE016F5F7F4F80E09FE3B2D280E050
:100320009FE391D26BEF79E880E09FE3AAD289E066
:100330009FE3BBD04AE0BE016F5F7F4F90E013D3D5
:1003400080E09FE380D2BE016F5F7F4F80E09FE33C
:1003500098D280E09FE377D26CEC79E880E09FE36D
:1003600090D22FE78AE196E0215080409040E1F75B
:1003700000C000008FE09FE3D9D220910F3F309161
:10038000103F2035314008F4ABCF89E09FE38DD09A
:10039000853009F4A5CF89E09FE38AD0A9CF89E011
:1003A0009FE383D0813009F4A3CF89E09FE396D007
:1003B0009FCF41E06CE870E280E09FE3E7D10895D1
:1003C0001F921FB61F9211242F93AF93BF9321E06A
:1003D0002093460A1092200A1092210A0000000081
:1003E000000000002091770624FD07C0BF91AF9167
:1003F0002F911F901FBE1F90189521E02093800120
:10040000AEE0BFE32C9121602C93F0CF2F933F936C
:1004100021E0209377062091200A3091210A209331
:100420000B3F30930C3F3F912F911895FC01A08119
:10043000B1816D937C930895FC01A081B1818D9170
:100440009C910895DC0112968D919C910895A0EAEB
:10045000B0E03C91387F3C932C91262B2C9308954F
:10046000FC0164836330A9F040F06430B1F0653082
:10047000C1F463E070E0EBDF0895613031F0623089
:1004800081F461E070E0E3DF089570E060E0DFDFB9
:10049000089564E070E0DBDF089562E070E0D7DF8C
:1004A000089570E060E0D3DF0895FC018481089531
:1004B000DC0114962C91149731E0320F253049F06D
:1004C00014963C93149714966C911497CD01C8DF41
:1004D000089521E014962C931497F5CFDC0114961F
:1004E0002C9114973FEF320F222349F014963C933E
:1004F000149714966C911497CD01B2DF089525E0FE
:1005000014962C931497F5CF8091410A82958170AF
:10051000089505960895FC0115820895DC0115964D
:100520002C9115972E7F15962C930895DC01159626
:100530002C9115972D7F15962C930895A0EAB0E085
:100540002C91287F2C932C9120632C93A0E7B6E06C
:1005500022E012962C93129721E016962C93169770
:100560002C9121602C93089521E02093000A089596
:10057000A0E8B1E023E012962C93129752962C93A8
:10058000A0E4BAE021E014962C93149730E43C9355
:1005900036E411963C93119715962C930895A0E09C
:1005A000B4E020E411962C93119715962C9315978F
:1005B00020E856962C93569712962C9308952F92D6
:1005C0003F92CF93DF93EC011B012CE43AE02883A8
:1005D00039831A821B821C82B1DF21E02093000A3A
:1005E000CE01C6DFCE01DBDFA881B9812D923C921E
:1005F000DF91CF913F902F900895A0E7B6E02C9126
:1006000021602C93A0E4BAE011962C9111972061FF
:1006100011962C9311972C9121602C930895A0E7AB
:10062000B6E02C912E7F2C93A0E4BAE011962C9189
:1006300011972F7E11962C9311972C912E7F2C932E
:1006400020E42093050408952091410A24FF02C06C
:10065000E6DF0895D2DF089564E070E089E09FE36B
:10066000AEDF08951F921FB61F9211242F933F9360
:10067000AF93BF93EF93FF93A0E0BFE313963C913A
:10068000139712962C9112973217B1F0FD01A081A9
:10069000B181238131E0320F3383A20FB11D2C9140
:1006A00020930208FF91EF91BF91AF913F912F915D
:1006B0001F901FBE1F901895A0E0B8E015962C91D2
:1006C00015972F7D15962C93EDCF2F932FB72F9342
:1006D000AF93BF93A0E0B8E015962C9115972F7BB0
:1006E00015962C93BF91AF912F912FBF2F911895F5
:1006F0000F920FB60F921F9211242F933F934F9397
:10070000AF93BF93EF93FF93A0E0BFE317963C91A5
:10071000179716962C911697321779F120910008A9
:1007200017963C9117971496ED91FC911597E30F4E
:10073000F11D20831496ED91FC91159717962C913D
:10074000179731E0320F17963C931797E20FF11D80
:10075000408118962C91022E000C330B4217130681
:1007600061F0FF91EF91BF91AF914F913F912F9128
:100770001F900F900FBE0F901895A0E0B8E015964F
:100780002C9115972F7715962C93EBCFDC011D92AA
:100790001C92119712961C92129713961C92A0E02D
:1007A000B2E011962C911197242B11962C934111A4
:1007B0001DC0A0E0B4E020E416962C931697119685
:1007C0002C93119720E812962C93A0E0B8E018968D
:1007D0006D937C93199723E017962C931797169691
:1007E0002C911697206C16962C930895A0E0B4E0F7
:1007F00022E016962C93169711962C93119724E0CD
:1008000012962C93E2CFDC0117962C91179781E07A
:1008100016963C913213089580E0FDCFDC011696C8
:100820003C91169717962C9117972313FBCF089599
:10083000DC0113962C91139781E012963C913213B0
:10084000089580E0FDCFDC0112963C91129713963B
:100850002C9113972313FBCF0895DC0117968C91ED
:100860000895DC0113968C910895FB01208120935B
:100870000208A0E0B8E014962C91149725FFFBCF56
:100880000895FC016083718330E0DB01A30FB11D8B
:100890003F5F2C912111F9CF32831382A0E0B8E0A1
:1008A00015962C911597206615962C930895FB01AB
:1008B00020910008A0E0B8E014962C911497222310
:1008C000DCF72091000820830895DC0130910008B6
:1008D0004423C1F014966D937C93159716964C9310
:1008E000169717961C92179718962C93A0E0B8E0CD
:1008F00020E814962C93149715962C911597206840
:1009000015962C930895FC0110821182A0E0B6E0A8
:1009100011961C92119723E112962C93129723E0C3
:1009200016962C93169721E02C93089521E020939E
:100930000806A0E0B6E01B962C911B972223D9F362
:10094000809110069091110680930F3F9093103F75
:1009500008958FE09FE3D7DF0895EE0FFF1F059006
:10096000F491E02D0994BB27FB015527AA27880F96
:10097000991FAA1FA41710F0A41B83955051B9F713
:10098000A05DAA3308F0A95DA193009779F7B11192
:10099000B1931192CB010C94CD04DC01FC01672FC3
:1009A00071917723E1F7329704C07C916D93708346
:0E09B0006291AE17BF07C8F30895F894FFCF09
:1009BE00496E70757420766F6C74616765730A0D7D
:1009CE00006C6576656C2000203A200043686172E9
:1009DE0067652074696D65730A0D006375727265C3
:1009EE006E7420766F6C746167653A2000207C20EF
:0E09FE00706F776572206C6576656C3A20002C
:02000004008278
:09000000000002FF00C50700002A
:00000001FF
